:100000000C9434000C9451000C9451000C94510049
:100010000C9451000C9451000C9451000C9451001C
:100020000C9451000C9451000C9451000C9451000C
:100030000C9451000C9451000C9458010C945100F4
:100040000C9451000C942B010C9451000C94510011
:100050000C9451000C9451000C9451000C945100DC
:100060000C9451000C94510011241FBECFEFD8E026
:10007000DEBFCDBF11E0A0E0B1E0E6E9F3E002C0F1
:1000800005900D92A630B107D9F711E0A6E0B1E0D6
:1000900001C01D92AC33B107E1F70E94AF000C9490
:1000A000C9010C94A80088E10FB6F8948093600011
:1000B000109260000FBE089584B18E6284B92A9AAE
:1000C0008AB18C618AB95B9A089584B18C6284B9D3
:1000D0008CB5806D8CBD8DB581608DBD089582E03D
:1000E00084BD83E087BDEEE6F0E08081826080839E
:1000F00085B5856085BD0895519A1092C50087E643
:100100008093C400E2ECF0E0808186608083E1ECC3
:10011000F0E080818860808308950895482F292F1A
:100120008BB190E189278BB9662349F0842F922FF8
:100130009C01F90111928E2F841B8617D8F3089524
:10014000982F8091C00085FFFCCF9093C600089542
:100150001F920F920FB60F9211245C9AFFCFF89462
:100160000E9453000E945C000E9465000E94B4013E
:100170000E946F000E947C0078940E94190140E068
:1001800050E16FEF70EFAFE080913B018823E1F326
:1001900020910201309103018BB185278BB9C901F0
:1001A000FC0148961192E817F907E1F74F5F4831D3
:1001B00029F04731D8F010923B01E6CF40E020E033
:1001C00030E08091C00085FFFCCF4093C600E091F5
:1001D0000201F0910301E20FF31F6083E09102013D
:1001E000F0910301E20FF31F7183E5CF242F30E07C
:1001F00040FFE7CFE0910201F0910301E20FF31F0E
:10020000A083E0910201F0910301E20FF31F6183EB
:10021000D2CF5A9A5B9A8BE09FEF9EBD0DB407FE3A
:10022000FDCF8150D0F78CE080933A01299A29982C
:1002300008955B9B04C05B9881E0809338012A9805
:1002400080913901E0910401F0910501E80FF11D61
:1002500080818EBD08951F920F920FB60F921124C8
:100260008F93EF93FF9380913901873150F0109273
:100270003901FF91EF918F910F900FBE0F901F905A
:100280001895809139018F5F8093390180913901F0
:10029000E0910401F0910501E80FF11D80818EBD10
:1002A000FF91EF918F910F900FBE0F901F901895B7
:1002B0001F920F920FB60F9211242F938F939F933B
:1002C000EF93FF938091060190910701019690931F
:1002D0000701809306012A9A299A2998809138016A
:1002E000882321F02D9A2D981092380180913901A0
:1002F00081115C9A8091060190910701805B944086
:10030000A9F0E0910401F09105012A98809139014A
:10031000E80FF11D80818EBDFF91EF919F918F912C
:100320002F910F900FBE0F901F90189510920701FC
:1003300010920601E0910401F0910501CF012E2FEA
:10034000E093000190930101E0910201F09103011B
:10035000F0930501E09304012093020190930301BF
:1003600081E080933B01D1CF29985A985B9A2A9AD1
:100370002D985A9A5B9A8BE09FEF9EBD0DB407FEB5
:10038000FDCF8150D0F78CE080933A01299A2998CB
:060390000895F894FFCF70
:0603960020012001080116
:00000001FF
