:100000000C9434000C9451000C9451000C94510049
:100010000C9451000C9451000C9451000C9451001C
:100020000C9451000C9451000C9451000C9451000C
:100030000C9451000C9451000C9453010C945100F9
:100040000C9451000C9426010C9451000C94510016
:100050000C9451000C9451000C9451000C945100DC
:100060000C9451000C94510011241FBECFEFD8E026
:10007000DEBFCDBF11E0A0E0B1E0E8EAF3E002C0EE
:1000800005900D92A630B107D9F711E0A6E0B1E0D6
:1000900001C01D92AC33B107E1F70E94A8000C9497
:1000A000D2010C94A10088E10FB6F894809360000F
:1000B000109260000FBE089584B18E6284B92A9AAE
:1000C0008AB18C618AB95B9A089584B18C6284B9D3
:1000D0008CB5806D8CBD8DB581608DBD089582E03D
:1000E00084BD83E087BDEEE6F0E08081826080839E
:1000F00085B5856085BD0895519A1092C50087E643
:100100008093C400E2ECF0E0808186608083E1ECC3
:10011000F0E080818860808308950895482F6623E9
:1001200039F09C01F90111928E2F841B8617D8F3A8
:100130000895982F8091C00085FFFCCF9093C60052
:1001400008951F920F920FB60F9211245C9AFFCF61
:10015000F8940E9453000E945C000E9465000E9477
:10016000B1010E946F000E947C0078940E941401EB
:1001700021E031E04FEFA0EF5FE080913B01882369
:10018000E1F3E0910201F0910301CF014896119251
:10019000E817F907E1F72931C8F4822F63E00E94DC
:1001A000C6019923E1F42F5F822F90E0E0910201D4
:1001B000F0910301E80FF91F31974083E0910201AC
:1001C000F0910301E80FF91FA08332E02F5F28317F
:1001D00019F010923B01D1CF21E031E0FACF31305C
:1001E00019F3822F90E0E0910201F0910301E80FF2
:1001F000F91F31975083E0910201F0910301E80F5C
:10020000F91F40833F5FE2CF5A9A5B9A8BE09FEFE2
:100210009EBD0DB407FEFDCF8150D0F78CE08093DA
:100220003A01299A299808955B9B04C05B9881E064
:10023000809338012A9880913901E0910401F0916E
:100240000501E80FF11D80818EBD08951F920F9268
:100250000FB60F9211248F93EF93FF938091390182
:10026000873150F010923901FF91EF918F910F90EB
:100270000FBE0F901F901895809139018F5F80936A
:10028000390180913901E0910401F0910501E80FF5
:10029000F11D80818EBDFF91EF918F910F900FBE68
:1002A0000F901F9018951F920F920FB60F92112466
:1002B0002F938F939F93EF93FF93809106019091DB
:1002C0000701019690930701809306012A9A299AC3
:1002D000299880913801882321F02D9A2D98109229
:1002E000380180913901809106019091070184368F
:1002F000910590F18BB190E189278BB9E0910401D0
:10030000F0910501CF012E2FE093000190930101A0
:10031000E0910201F0910301F0930501E0930401E3
:10032000209302019093030110920701109206019D
:1003300081E080933B012A9880913901E80FF11DFB
:1003400080818EBDFF91EF919F918F912F910F90A2
:100350000FBE0F901F901895E0910401F0910501D8
:10036000EACF29985A985B9A2A9A2D985A9A5B9ABA
:100370008BE09FEF9EBD0DB407FEFDCF8150D0F7FF
:100380008CE080933A01299A29980895991B79E085
:1003900004C0991F961708F0961B881F7A95C9F715
:0803A00080950895F894FFCF49
:0603A80020012001080104
:00000001FF
