:100000000C9434000C9451000C9451000C94510049
:100010000C9451000C9451000C9451000C9451001C
:100020000C9451000C9451000C9451000C9451000C
:100030000C9451000C9451000C9452010C945100FA
:100040000C9451000C9425010C9451000C94510017
:100050000C9451000C9451000C9451000C945100DC
:100060000C9451000C94510011241FBECFEFD8E026
:10007000DEBFCDBF11E0A0E0B1E0EEE9F3E002C0E9
:1000800005900D92A630B107D9F711E0A6E0B1E0D6
:1000900001C01D92AC33B107E1F70E94A7000C9498
:1000A000CD010C94A00088E10FB6F8948093600015
:1000B000109260000FBE089584B18E6284B92A9AAE
:1000C0008AB18C618AB95B9A089584B18C6284B9D3
:1000D0008CB5806D8CBD8DB581608DBD089582E03D
:1000E00084BD83E087BDEEE6F0E08081826080839E
:1000F00085B5856085BD0895519A1092C50087E643
:100100008093C400E2ECF0E0808186608083E1ECC3
:10011000F0E08081886080830895482F662339F05D
:100120009C01F90111928E2F841B8617D8F3089534
:10013000982F8091C00085FFFCCF9093C600089552
:100140001F920F920FB60F9211245C9AFFCFF89472
:100150000E9453000E945C000E9465000E94AC0156
:100160000E946F000E947C0078940E94130121E09D
:1001700031E04FEFA0EF5FE080913B018823E1F396
:10018000E0910201F0910301CF0148961192E81726
:10019000F907E1F72931C8F4822F63E00E94C10119
:1001A0009923E1F42F5F822F90E0E0910201F0911A
:1001B0000301E80FF91F31974083E0910201F091AC
:1001C0000301E80FF91FA08332E02F5F283119F0F7
:1001D00010923B01D1CF21E031E0FACF313019F359
:1001E000822F90E0E0910201F0910301E80FF91FE6
:1001F00031975083E0910201F0910301E80FF91F5C
:1002000040833F5FE2CF5A9A5B9A8BE09FEF9EBD9F
:100210000DB407FEFDCF8150D0F78CE080933A01FA
:10022000299A299808955B9B04C05B9881E080938C
:1002300038012A9880913901E0910401F09105017B
:10024000E80FF11D80818EBD08951F920F920FB6A9
:100250000F9211248F93EF93FF938091390187318F
:1002600050F010923901FF91EF918F910F900FBED6
:100270000F901F901895809139018F5F80933901FD
:1002800080913901E0910401F0910501E80FF11D21
:1002900080818EBDFF91EF918F910F900FBE0F90D7
:1002A0001F9018951F920F920FB60F9211242F9343
:1002B0003F938F939F93EF93FF93809106019091CB
:1002C0000701019690930701809306012A9A299AC3
:1002D000299880913801882321F02D9A2D98109229
:1002E00038018091060190910701C297D8F0809162
:1002F00004019091050190930101809300012091E8
:100300000201309103013093050120930401909381
:10031000030180930201109207011092060181E00F
:1003200080933B012A9880913B01882351F0809172
:100330003901E0910401F0910501E80FF11D808180
:100340008EBDFF91EF919F918F913F912F910F90D3
:100350000FBE0F901F90189529985A985B9A2A9A69
:100360002D985A9A5B9A8BE09FEF9EBD0DB407FEC5
:10037000FDCF8150D0F78CE080933A01299A2998DB
:100380000895991B79E004C0991F961708F0961BF1
:0E039000881F7A95C9F780950895F894FFCFDD
:06039E002001200108010E
:00000001FF
