:100000000C94C5060C94E2060C94E2060C94E206ED
:100010000C94911A0C94E2060C94E2060C94361996
:100020000C94E2060C94E2060C94E2060C94D21AAC
:100030000C94E2060C94E2060C94A41B0C94E206C9
:100040000C94E2060C94971B0C943A1B0C94E20659
:100050000C94681B0C94F9180C94E2060C94E206BC
:100060000C94E2060C94E20605A84CCDB2D44EB92D
:100070003836A9020C50B9918688083CA6AAAA2A4B
:10008000BE000000803F0124F4B2080E24F4B4083E
:100090000624F4B6081448E8B8081F90D0BA08013E
:1000A0006889C7081F90D0C908195307D6080135B9
:1000B0000CD80817E803DA0816F401DC08048813E2
:1000C000DE081F350CE00814E204110900E20413F5
:1000D00009078A02150915530717091E7102190924
:1000E00001350C1B091F59061D090BD007320905E4
:1000F0005307340908E204360904881338090A71E1
:10010000023A090E88133C091FF9153E09195307D5
:1001100095091FE2049709014C1DAC091F1711AE88
:10012000091F1711EF0904983A2D0A1F350C2F0AE1
:1001300014E204630A004C1D650A1FE204670A0703
:100140008A02790A01983A7B0A1F59067D0A1F59CB
:1001500006930A0B4C1DA80A1F8813AA0A04983A92
:10016000090B0A71020B0B0E88130D0B1FF9150FEB
:100170000B1F8813660B1F1711AA0B0120A1D60BAA
:100180000E90D0D80BDA0B0000140A0104E30B0028
:1001900000830A0104E80B9B0A00000004F10BD85D
:1001A00015B10A0104F80BE406AA0C0005FE0BF3D6
:1001B000092E1600060A0C0000950A0104110C0015
:1001C00000910E0104170C0000181001041F0C0010
:1001D00000FD130004250C0000F10F01042A0CEEB1
:1001E00006FD1701042F0C6E0A00000004380C00F5
:1001F000006D070004420C0000890A0104470C004E
:1002000000D50F01044E0CE806E9060104570C0066
:1002100000000B01045E0C00008F0A0104670C0053
:10022000009F1001046E0CBD0CC00C010C7B0C1F58
:100230000CF9160004800CA61300000004850C398C
:100240000C8C1500048E0C000077130004980CEA47
:1002500006B50B017DA20CB61300000004A70C44E8
:1002600017230B0004B10C0000C6130104B60C00E8
:1002700000500B0104C30C9A1767140004CD0C0046
:1002800000F10B0104054552524F520000000000DE
:10029000000000000000000000000000000000005E
:1002A000000000000000000000000000000000004E
:1002B000000000000000000000000000000000003E
:1002C000000000000000000000000000000000002E
:1002D000000000000000000000000000000000001E
:1002E000000000000000000000000000000000000E
:1002F00000000000000000000000000000000000FE
:1003000000000000000000000000000000000000ED
:1003100000000000000000000000000000000000DD
:1003200000000000000000000000000000000000CD
:1003300000000000000000000000000000000000BD
:1003400000000000000000000000000000000000AD
:10035000000000000000000000000000000000009D
:10036000000000000000000000000000000000008D
:10037000000000000000000000000000000000007D
:10038000000000000000000000000000000000006D
:1003900000000000183C3C18180018003636000019
:1003A0000000000036367F367F3636000C3E031ED6
:1003B000301F0C00006333180C6663001C361C6E83
:1003C0003B336E000606030000000000180C060612
:1003D000060C1800060C1818180C060000663CFFE6
:1003E0003C660000000C0C3F0C0C000000000000FC
:1003F000000C0C060000003F0000000000000000A0
:10040000000C0C006030180C060301003E63737B87
:100410006F673E000C0E0C0C0C0C3F001E33301CA2
:1004200006333F001E33301C30331E00383C363359
:100430007F3078003F031F3030331E001C06031F3F
:1004400033331E003F3330180C0C0C001E33331EA8
:1004500033331E001E33333E30180E00000C0C00E8
:10046000000C0C00000C0C00000C0C06180C060311
:10047000060C180000003F00003F0000060C18307A
:10048000180C06001E3330180C000C003E637B7BFA
:100490007B031E000C1E33333F3333003F66663E42
:1004A00066663F003C66030303663C001F366666D3
:1004B00066361F007F46161E16467F007F46161EB4
:1004C00016060F003C66030373667C003333333F2C
:1004D000333333001E0C0C0C0C0C1E007830303003
:1004E00033331E006766361E366667000F06060643
:1004F00046667F0063777F7F6B63630063676F7B14
:10050000736363001C36636363361C003F66663E9C
:1005100006060F001E3333333B1E38003F66663E2F
:10052000366667001E33070E38331E003F2D0C0C55
:100530000C0C1E003333333333333F003333333348
:10054000331E0C006363636B7F7763006363361C49
:100550001C3663003333331E0C0C1E007F633118CE
:100560004C667F001E06060606061E0003060C18D3
:10057000306040001E18181818181E00081C36633A
:100580000000000000000000000000FF0C0C18003C
:100590000000000000001E303E336E000706063EDD
:1005A00066663B0000001E3303331E003830303EC9
:1005B00033336E0000001E333F031E001C36060F4F
:1005C00006060F0000006E33333E301F0706366EFE
:1005D000666667000C000E0C0C0C1E0030003030FC
:1005E0003033331E070666361E3667000E0C0C0CC1
:1005F0000C0C1E000000337F7F6B630000001F3374
:100600003333330000001E3333331E0000003B66DB
:10061000663E060F00006E33333E307800003B6EBE
:1006200066060F0000003E031E301F00080C3E0C43
:100630000C2C18000000333333336E0000003333CA
:10064000331E0C000000636B7F7F360000006336B2
:100650001C36630000003333333E301F00003F1967
:100660000C263F00380C0C070C0C3800181818002A
:1006700018181800070C0C380C0C07006E3B000013
:10068000000000000000000000000000000000006A
:10069000000000000000000000000000000000005A
:1006A0000000000000000B000B000B000B000B0013
:1006B0000B000B000B000B000B000B000B000B00E2
:1006C0000B000B000B000C000C000C000C000C00CD
:1006D0000C000C000C000C000C000D000D000D00B7
:1006E0000D000D000D000D000D000E000E000E009F
:1006F0000E000E000E000F000F000F000F000F0085
:100700001000100010001000110011001100110065
:100710001200120012001200130013001300140044
:10072000140015001500150016001600170017001C
:1007300017001800180019001A001A001B001B00EF
:100740001C001C001D001E001E001F0020002100B8
:100750002100220023002400250026002700280075
:1007600029002A002B002C002D002E003000310023
:100770003200340035003600380039003B003D00BF
:100780003E00400042004400460048004A004C0041
:100790004E0051005300550058005B005D006000A2
:1007A0006300660069006C007000730076007A00D8
:1007B0007E00820086008A008E00930097009C00D5
:1007C000A100A600AB00B000B600BC00C100C8008C
:1007D000CE00D400DB00E200E900F100F8000001E7
:1007E000090111011A0123012C01360140014A01BE
:1007F000550160016B017701830190019C01AA0101
:10080000B801C601D501E401F40104021502260273
:1008100038024B025E02710286029B02B102C702DD
:10082000DF02F7021003290344035F037B039903EC
:10083000B703D603F60318043A045E048204A8043E
:10084000D004F80422054D057A05A805D805090647
:100850003C067106A706DF06190755079307D3075D
:1008600015085908A008E90834098209D209250A9F
:100870007B0AD40A2F0B8E0BF00B550CBD0C290DE7
:10088000980D0B0E820EFD0E7C0FFF0F0003060766
:100890001B31640DD90CDD0C00004C0DF50CF80C6F
:1008A00000000A0E0F0D150D330D590E510D5B0D85
:1008B0006E0D00000000000000000B5468697320FA
:1008C000776F726B73210000000B54686973207797
:1008D0006F726B7321000000000000000000000038
:1008E0002F496E207468652067616D65206F6620F2
:1008F0006C69666520796F7520656974686572201A
:1009000077696E2C206F7220796F75206469652E6F
:100910000000000000000000000000000013576904
:100920006E74657220697320636F6D696E672E2E19
:100930002E000000000000000000000000005543F1
:100940007265646974733A206265627261772C2003
:10095000656E796F6E652C2049636368616E5E2CED
:1009600020696C652D2C206D6172616E742C206E77
:10097000616D7461622C205A6F757070656E2C20E9
:100980006B617469732C204C61737365532C205414
:100990007567676500000013456C6F76616C6F20AA
:1009A00068617320617272697665640000003F457A
:1009B0006C6F76616C6F20696E766173696F6E2003
:1009C0007370726561647320746572726F722061F6
:1009D0006E6420636F6E667573696F6E20616372FB
:1009E0006F73732050726F746F6D6F212121003C03
:1009F0005374657020636C6F736572206D79206627
:100A00007269656E642C2067697665206D6520616A
:100A1000206875672E204D616B65206D79206865B3
:100A200061727420666C7574746572210000003206
:100A3000496E207468652067616D65206F6620656A
:100A40006C6F76616C6F20796F752065697468656D
:100A5000722077696E2C206F7220796F752064691F
:100A6000652E000000000010576861742069732033
:100A7000656C6F76616C6F3F00000000001442618E
:100A8000627920646F6E277420486572747A206DD5
:100A90006521001357696E74657220697320636F56
:100AA0006D696E672E2E2E0000005D436F6D652010
:100AB0006F6E2C207765277665206265656E2066EF
:100AC0007269656E647320666F722061206C6F6E50
:100AD000672074696D65206E6F772E2049207468D9
:100AE000696E6B20697427732074696D6520746F5B
:100AF0002074616B6520746865206E65787420735E
:100B00007465702E2E2E2E2E000000000000005561
:100B1000437265646974733A206265627261772C0E
:100B200020656E796F6E652C2049636368616E5E27
:100B30002C20696C652D2C206D6172616E742C20E7
:100B40006E616D7461622C205A6F757070656E2CC9
:100B5000206B617469732C204C61737365532C2076
:100B60005475676765004248697265206D65206944
:100B70006620796F752077616E7420796F757220A9
:100B80006578706F20626F6F746820746F20626583
:100B9000207468652023312074616C6B206F66209F
:100BA0007468652073686F7721002A687474703ADE
:100BB0002F2F656C6F76616C6F2E6F7267202E2001
:100BC0005765206861766520636F6D6520746F20BE
:100BD000737461792E0000000000677261646965BA
:100BE0006E740073696E65007374616972735F7906
:100BF000006D61747269780068656172740066697D
:100C00006E6974655F776F726D00616C6C5F6F6E9B
:100C100000636C6F636B00746F726E61646F006C65
:100C2000696E65730074756265007261696E007348
:100C300074616972735F780063686172616374657F
:100C400072007761766500636972636C6500746534
:100C50006D706C617465006C617965727300636FAF
:100C60006E7374616E74007370686572650067619D
:100C70006D655F6F665F6C69666500776F726D00AA
:100C8000637562650062726F776E69616E00776985
:100C900072656672616D6500636F756E74646F77FF
:100CA0006E006C696E6500737461726669656C6470
:100CB000006669736800746573745F73656E736F43
:100CC0007231007061727469636C65730073637272
:100CD0006F6C6C5F74657874006F666600506F7738
:100CE00065722D6F66662074686520637562652085
:100CF00070617274006F6E00506F7765722D6F6E49
:100D00002074686520637562652070617274006884
:100D1000656C6C6F00536179202268656C6C6F2282
:100D200020746F2073657269616C20636F6E736FDE
:100D30006C65004E756D62657220746F2077726904
:100D40007465206166746572202268656C6C6F2220
:100D500000696E74656E73697479005365742063FD
:100D600075626520696E74656E7369747900496E89
:100D700074656E73697479206265747765656E2039
:100D80003020616E64203235350011241FBECFEF54
:100D9000D8E0DEBFCDBF11E0A0E0B1E0ECEEF5E4BD
:100DA00002C005900D92AE30B107D9F717E0AEE062
:100DB000B1E001C01D92A83AB107E1F70E94021C00
:100DC0000C94F4220C94331B8FEF80932E0408951F
:100DD000089508958FE080932E0408950E9487223D
:100DE00090932F0480932E0408955F928F929F9288
:100DF000AF92BF92CF92DF92EF92FF920F931F9329
:100E0000CF93DF93CDB7DEB72B970FB6F894DEBF45
:100E10000FBECDBF562E5A874987EE24E394F12C9E
:100E2000EC0EFD1E870120E030E048E0849FC00109
:100E30001124FC01E20FF31FE457FD4FA491F801C8
:100E4000A1938F012F5F3F4F2830310591F7A12CDF
:100E5000B12C89E0C82ED12CCC0EDD1E8A2C2A2D77
:100E6000251931E0022E01C0330F0A94EAF7932EC0
:100E7000870105C00F5F1F4F0C151D0599F0602FEE
:100E80006E192830B8F7F8019081992199F3882DCF
:100E90002B87E985FA8509952B850F5F1F4F0C1568
:100EA0001D0569F7FFEFAF1ABF0A48E0A416B104A9
:100EB000A9F62B960FB6F894DEBF0FBECDBFDF911B
:100EC000CF911F910F91FF90EF90DF90CF90BF9047
:100ED000AF909F908F905F9008954BE458E060E052
:100EE00070E083E60C94F5068F929F92BF92CF92AA
:100EF000DF92EF92FF920F931F93CF93DF9300D077
:100F0000CDB7DEB7B62E7C01662309F462C06FEF61
:100F1000E61AF60AFC01C490A9E0B0E0A41BB50BE8
:100F2000CD01B7FD60C09595879595958795959569
:100F3000879588249924881A990A8401000F111F23
:100F4000000F111F000F111F0A0F1B1F97FC2FC04E
:100F5000D12C8C149D0474F4F701E80DF91DB11027
:100F600049C08081A901B80129833A830E94F5060E
:100F700029813A81F4013196EC15FD05E4F4BB209A
:100F8000A1F1EE0DFF1D8491B801685F7F4FA901AB
:100F90000F900F90DF91CF911F910F91FF90EF90E5
:100FA000DF90CF90BF909F908F900C94F506FFEF4D
:100FB0008F169F0609F10F900F90DF91CF911F912F
:100FC0000F91FF90EF90DF90CF90BF909F908F9008
:100FD0000895FC01C1907F01A9E0B0E0A41BB50B0E
:100FE000CD01B7FFA0CF07969ECFF401EE0DFF1DF8
:100FF0008181CACF8491B6CFD12CBCCF70E0660F6F
:10100000771F660F771F660F771F682B80E4489F56
:10101000A0011124642B752BCB01880F991F860F1B
:10102000971F880F991F880F991FFC01F695E79568
:10103000F695E795F695E7954091060150910701E1
:10104000DA01AE0FBF1F3196E40FF51F90815C915E
:1010500040E0492B82FD0EC0CA018F70992722956E
:101060003295307F3227207F3227822B932B9C931F
:1010700080830895CA018827907F822B932B9C93AD
:1010800080830895462F2FEF3FE067E097E0981B9D
:10109000892F0C94FE07462F2FEF3FE0682F87E043
:1010A0000C94FE072FEF3FE00C94FE072FEF3FE07C
:1010B00043E00C94FE07FF920F931F93CF93DF93AF
:1010C000182F062FF52EF294CFE0FC22EA01DF70F4
:1010D0002FEF3FE02C1B3D0B4F2D0E94FE074F2DA5
:1010E0004F5F9E01602F812FDF91CF911F910F9154
:1010F000FF900C94FE078F929F92AF92BF92CF9277
:10110000DF92EF92FF920F931F93CF93DF9300D064
:1011100000D0CDB7DEB7182F062F60912501709152
:10112000260180E090E00E9429206B017C01612F64
:1011300070E080E090E00E94292020E030E040E074
:101140005FE30E94DF204B015C0120E030E048ECCF
:1011500051E4C701B6010E94951F9B01AC01C50176
:10116000B4010E942D1F0E9442214B015C01602F9F
:1011700070E080E090E00E94292020E030E040E034
:101180005FE30E94DF2069837A838B839C8320E066
:1011900030E048E452E4C701B6010E94951F9B016C
:1011A000AC0169817A818B819C810E942D1F0E94F4
:1011B00042216B017C0120E030E040E050E4C501B9
:1011C000B4010E942D1FA70196010E942D1F20E04F
:1011D0003EEF4FED55E40E94DF200E94FD1FAB0162
:1011E000602F812F0F900F900F900F90DF91CF9174
:1011F0001F910F91FF90EF90DF90CF90BF90AF9035
:101200009F908F900C945B088F929F92AF92BF92A9
:10121000CF92DF92EF92FF920F931F93CF93DF93C2
:10122000C82FD62F0EE214E026E636E646E65FE348
:10123000F80160817181828193810E94DF206B01BE
:101240007C016091020170E080E090E00E94292022
:101250002DEC3CEC4CEC5DE30E94DF209B01AC01EB
:10126000C701B6010E942D1F6B017C01982F4C2DE8
:101270005D2D692F7F2DF801408351836283738335
:101280006C2F70E080E090E00E94292020E030E0A8
:1012900048E452E40E94DF204B015C01609125018B
:1012A0007091260180E090E00E94292020E030E04B
:1012B00040E751E40E94951F9B01AC01C501B401B8
:1012C0000E942D1F4B015C0120E030E040E251E420
:1012D0006C2D7D2D8E2D9F2D0E94951F9B01AC01A5
:1012E000C501B4010E942D1F0E94422120E030E080
:1012F00040E050E40E942D1F20E03EEF4FED55E40A
:101300000E94DF200E94FD1FAB016D2F8C2FDF910B
:10131000CF911F910F91FF90EF90DF90CF90BF90F2
:10132000AF909F908F900C945B08EF92FF920F9379
:101330001F93CF93DF93F82EE62ED22F241750F071
:10134000C42F98014E2D6C2F8F2D0E94FE07CF5F6A
:10135000DC17B8F7DF91CF911F910F91FF90EF90BD
:1013600008950F931F93CF93DF93EC0100E010E0FB
:10137000612F802FFE0109951F5F1830C9F70F5F9D
:101380000830A9F7DF91CF911F910F910895FF9237
:101390000F931F93CF93DF93EC01F12C00E010E04B
:1013A000412F602F8F2DFE0109951F5F1830C1F767
:1013B0000F5F0830A1F7F394F8E0FF12EFCFDF9151
:1013C000CF911F910F91FF900895A6E0B1E0EC91AD
:1013D0001196FC9180E093E0DF019C011D92215069
:1013E0003040E1F7089584E090E090932F048093DB
:1013F0002E049093310480933004909333048093AF
:101400003204109235041092340481E08093360443
:101410004AE050E06AE070E087E394E00E9497229F
:10142000109255040C94E509CF92DF92EF92FF924F
:101430000F931F93CF93DF93C0902501D090260187
:10144000D694C794D294C294DFE0CD22CD24DD227D
:10145000CD2487E0C822DD240E94E509C0E0D7E062
:10146000E12CF12C27C0B6016E197F09882777FD82
:101470008095982F0E942B202DEC3CEC4CEC5DE3EA
:101480000E94DF2020E030EF4FE755E40E94DF208C
:101490000E94FD1F3D2F3E198B0127E040E0632F86
:1014A0008C2F0E9495098FEFE81AF80A88E0E81659
:1014B000F10441F0CE14DF04B4F660E070E080E0A7
:1014C00090E0E0CFCF5FC83059F6DF91CF911F9108
:1014D0000F91FF90EF90DF90CF9008950F931F939F
:1014E000CF930E94E509C0E00FEF1FE027E040E046
:1014F0006C2F8C2F0E949509CF5FC830A9F7CF9130
:101500001F910F9108950E94E5098BE798E00C94D4
:10151000B1090E94E50984E099E00C94B1090E94A8
:10152000E50986E598E00C94B1090E94E50982E599
:1015300098E00C94C709CF93DF930E94E509D0E0AF
:10154000C0E02FEF3FE04C2F6C2F8D2F0E94FE0745
:10155000CF5FC830B1F7DF5FD83091F7DF91CF911F
:1015600008959F92AF92BF92CF92DF92EF92FF9237
:101570000F931F93CF93DF930E94E50990E3C92E49
:1015800094E0D92E00E010E0F801EE0FFF1FE00F0D
:10159000F11FE25DFB4F9080A180B280C0E0D0E0FF
:1015A000EB2CF12C9E012E0D3F1D28303105FCF057
:1015B0002196C330D105B1F78B2D8F5F883008F0AD
:1015C00080E0F60180830F5F1F4FF3E0CF0ED11C48
:1015D0000A301105C9F6DF91CF911F910F91FF904D
:1015E000EF90DF90CF90BF90AF909F9008954C2FD9
:1015F0004B0D2FEF3FE06A2D892D0E94FE07D8CFBB
:101600001F93CF93DF930E94E509409125015091EC
:101610002601440F452F441F550B5195142F177069
:10162000D0E0C0E02FEF3FE0412F6C2F8D2F0E94C4
:10163000FE07CF5FC830B1F7DF5FD83091F7DF9199
:10164000CF911F910895FF920F931F93CF93DF9334
:101650000E94E5090FE214E0C0E0D0E0FE01EE0FC9
:10166000FF1FEC0FFD1FE25DFB4FF1802FEF3FE00E
:1016700042816F2D80810E94FE076F2D6F5F683061
:1016800008F060E0F801608321960D5F1F4FCA30BB
:10169000D10521F7DF91CF911F910F91FF90089510
:1016A0001F93CF93DF930E94E509109102018DEC07
:1016B000189F112D112412951F70183008F017E093
:1016C000D0E0C0E02FEF3FE0412F6C2F8D2F0E9424
:1016D000FE07CF5FC830B1F7DF5FD23091F71091CE
:1016E00003018DEC189F112D112412951F701830D5
:1016F00008F017E0D2E0C0E02FEF3FE0412F6C2F61
:101700008D2F0E94FE07CF5FC830B1F7DF5FD43066
:1017100091F710910401129516951770D4E0C0E06E
:101720002FEF3FE0412F6C2F8D2F0E94FE07CF5FE0
:10173000C830B1F7DF5FD63091F7109105011295EF
:1017400016951770D6E0C0E02FEF3FE0412F6C2FC9
:101750008D2F0E94FE07CF5FC830B1F7DF5FD83012
:1017600091F7DF91CF911F910895CF93DF9300D030
:101770001F92CDB7DEB782E0898390912E048DEC65
:10178000989F812D1124869586958695282F205D1A
:101790002A832AE0829F90191124892F805D8B83F0
:1017A0000E94E5092BE438E049E050E060E0CE011A
:1017B00001960E94740722E438E040E150E060E0C6
:1017C000CE0101960E94740780912E04882319F09F
:1017D000815080932E040F900F900F90DF91CF9146
:1017E00008950F931F93CF93DF9300912C011091D5
:1017F0002D010115110501F10E94E509C091250196
:10180000D0912601D695C795D695C795D695C795FB
:1018100022E438E0AE0161E0C8010E947407AE0125
:10182000475051092BE438E061E0C801DF91CF91C6
:101830001F910F910C94740705E812E0DDCF84E04E
:1018400090E090932F0480932E0490933104809322
:101850003004909333048093320410923504109234
:10186000340481E090E090933704809336040C9424
:10187000E50984E080932E0480932F048093300444
:101880000C94E509FF920F931F93CF93DF93F82EEB
:10189000E62FF0E0EE0FFF1FE457F94FC591D4910A
:1018A0008E0122E041E060E00E94950926E045E0DB
:1018B00060E08F2D0E94950927E040E061E08F2DC8
:1018C0000E94950927E040E062E08F2D0E94950973
:1018D00027E040E063E08F2D0E94950926E041E07B
:1018E00064E08F2D0E94950925E042E065E08F2D90
:1018F0000E94950924E043E066E08F2D0E9495093F
:10190000DF91CF911F910F91FF9008951F93CF9377
:10191000DF93C82FD82FD695D6956D2F81E00E94E2
:10192000420C1C2F1695612F82E00E94420C6C2FF6
:1019300083E00E94420C6C2F84E00E94420C612FD5
:1019400085E00E94420C6D2F86E0DF91CF911F91C0
:101950000C94420C0E94E5092091020188EC90E071
:10196000821B910966EF7FEF0E94F521EEE2F4E021
:101970008081860F80830C94860C8FEF0C94860CEC
:1019800010922E0485EC94E10E94C70980912E04E8
:10199000811108958FEF0C94860CF8942091170113
:1019A000309118017894C90108953D9A3C98E8E671
:1019B000F0E0808182608083ECE6F0E080818061ED
:1019C0008083459AE1E8F0E08081886080838081AF
:1019D0008160808380EA90E0909389008093880002
:1019E0001092850010928400B19AEFE6F0E08081B9
:1019F0008260808381E08093160181E090E0089509
:101A0000F894409114015091150178944F3F8FEF55
:101A10005807C9F0CA01880F991F440F551F440F7A
:101A2000551F440F551F840F951F9C01AFE8B3EE5F
:101A30000E94C521AC0156954795529542954F702D
:101A400045275F704527CA01089580932B0125E043
:101A5000829FC00111248A579F4FFC01249130E0DE
:101A6000220F331F220F331F220F331F2B573E4FDE
:101A700030932A0120932901319625913491E7E290
:101A8000F1E0208331830396FC0185919491ECE28F
:101A9000F1E0808391830895809123018093240154
:101AA000E4E6F0E080818E7F808380818B7F80837D
:101AB00080818F7D80838081877F8083EEE6F0E068
:101AC0008081826080830895E4E2F1E080818093E8
:101AD000230183E08083E4E6F0E0808181608083FD
:101AE000808184608083808180628083808188603F
:101AF00080832A9A299808959091560791110DC0D4
:101B00009FE390935607EFE3F0E0E95AF84F8083A4
:101B100080911201891769F00895915090935607AA
:101B2000E92FF0E0E95AF84F808380911201891380
:101B3000F3CF81E08093110108959091560707C07B
:101B400083B7816083BF889583B78E7F83BF809181
:101B500011018130A9F380911201891B209112019A
:101B6000291708F4805C882359F3E92FF0E0E95A3B
:101B7000F84F80819F5F903419F090935607089535
:101B8000109256070895982F60919707462F50E0BE
:101B90004F5F5F4F2091100130E024173507D1F3DC
:101BA0006F3021F4809110018823A1F3F894809183
:101BB000970720911001821781F0E82FF0E0E85696
:101BC000F84F90838F5F80939707803171F09091E9
:101BD0001001981789F0789408952091C00025FF8E
:101BE000ECCF9093C600789408951092970780E008
:101BF000909110019813EFCF81E080930F017894BA
:101C00000895CF93C82F8EE70E94C30D8C2FCF91DC
:101C10000C94C30DCF93C82F88E60E94C30D85E6B0
:101C20000E94C30D8CE60E94C30D8CE60E94C30D7A
:101C30008FE60E94C30D8C2F805DCF910C94C30D55
:101C4000CF93C82F0E94C30DCE3711F0CF910895C6
:101C500080E0CF910C94C30DEF92FF920F931F93EE
:101C6000CF93DF937B016115710501F18C01C0E019
:101C7000D0E007C0F80181938F012196CE15DF05D2
:101C800069F00E949D0D8E37A9F70E949D0D882353
:101C900089F30E947C0D8EE70E947C0DCE01DF91BE
:101CA000CF911F910F91FF90EF900895C0E0D0E089
:101CB000F5CF803140F0682F80E09FE070E00E9417
:101CC000E12167BD08958FEF87BD08950F931F939E
:101CD000F8949091AD078091A8072091A9078227D9
:101CE00025E582272091AA0782272091AB0782272A
:101CF000891749F000E010E098017894B801C90113
:101D00001F910F9108950091A8071091A9072091A4
:101D1000AA073091AB077894B801C9011F910F91C0
:101D200008958F929F92AF92BF92CF92DF92EF92DF
:101D3000FF921F93CF93DF93CDB7DEB729970FB6EE
:101D4000F894DEBF0FBECDBF88E089838AE38C8321
:101D50008F830E94660E605D754D8F4F9F4F20E808
:101D600031E541E050E00E9409226B017C01BCE3B7
:101D70008B2E912CA12CB12CA50194010E9409223B
:101D8000162FCA01B901A50194010E940922B62E9D
:101D9000C701B60120E13EE040E050E00E94092288
:101DA0008DEC289F912D1124969596959695392F17
:101DB000305D3A833AE0939F20191124205D2B83F4
:101DC000B89E912D1124969596959695292F205D74
:101DD0002D832AE0929FB01811249B2D905D9E8345
:101DE000189F812D1124869586958695982F905D54
:101DF00098873AE0839F10191124105D19870E947B
:101E0000E509E0902501F0902601F694E794F69418
:101E1000E794F694E79422E438E0A70160E0CE016D
:101E200001960E947407A701475051092BE438E03E
:101E300060E0CE0101960E94740729960FB6F894CF
:101E4000DEBF0FBECDBFDF91CF911F91FF90EF900E
:101E5000DF90CF90BF90AF909F908F9008955F924A
:101E60008F929F92AF92BF92CF92DF92EF92FF92AA
:101E70000F931F93CF93DF93CDB7DEB762970FB663
:101E8000F894DEBF0FBECDBF4C8748015901845086
:101E90006450992787FD90959C01295F3F4F388BAF
:101EA0002F87462F552747FD50955E874D87495F01
:101EB0005F4F5A834983FC013196FB87EA871F8273
:101EC0002D853E852F5F3F4F39872887CB82DC8267
:101ED000ED82FE82889F7001899FF00CF00C112426
:101EE000D884C9848D859E85512C0DC08D2D9C2D47
:101EF00053949C012F5F3F4F49815A8148175907DE
:101F000084F1D22EC32E889FB001899F700D700D71
:101F100011246E0D7F1D882777FD8095982F0E94D4
:101F20002B208B018A8B998BA5019401712F0E9424
:101F3000DB201816DCF62B813C814D815E81FA890D
:101F4000E989602F712F8F2F9E2F0E94911F87FF8D
:101F5000CDCF2FEF3FE04C85652D8F810E94FE078E
:101F6000C5CF8A859B855F815F5F5F839C012F5F03
:101F70003F4FEF85F889E817F9071CF03B872A8760
:101F8000A9CF62960FB6F894DEBF0FBECDBFDF912A
:101F9000CF911F910F91FF90EF90DF90CF90BF9066
:101FA000AF909F908F905F900895CF92DF92EF92C5
:101FB000FF920F931F93C12CD12C00E2E02E01E47D
:101FC000F02E00E010E020EC30E440E060E080E043
:101FD0000E942F0F1F910F91FF90EF90DF90CF90F5
:101FE0000895CF92DF92EF92FF920F931F930E947A
:101FF000E509409125015091260156954795569542
:10200000479547705527C12CD12C90E2E92E91E4D9
:10201000F92E00E010E020EC30E460E080E00E9467
:102020002F0F1F910F91FF90EF90DF90CF900895A9
:10203000CF92DF92EF92FF920F931F93CF93DF9394
:10204000C0912501C295C170DC2F0E94E509C12C09
:10205000D12C20E5E22E21E4F22E00E010E020E178
:1020600031E440E060E08C2F0E942F0FD195C12C0D
:10207000D12C30E4E32E31E4F32E00E010E020E038
:1020800031E441E060E08D2F0E942F0FC12CD12C54
:1020900040E3E42E41E4F42E00E010E020EE30E4D2
:1020A00042E06C2F80E00E942F0FC12CD12C50E217
:1020B000E52E51E4F52E00E010E020EE30E443E0A0
:1020C0006D2F80E00E942F0FC12CD12C60E1E62EF5
:1020D00061E4F62E00E010E020EC30E444E060E043
:1020E0008C2F0E942F0FC12CD12C70EAE72E70E4A8
:1020F000F72E00E010E020E430E445E060E08D2FB2
:102100000E942F0FC12CD12CE0E4EE2EFE2C00E01B
:1021100010E020E83FE346E06C2F80E00E942F0FA4
:102120002FEF3FE047E064E08C2FDF91CF911F91CC
:102130000F91FF90EF90DF90CF900C94FE075F928D
:102140008F929F92AF92BF92CF92DF92EF92FF92C7
:102150000F931F93CF93DF93CDB7DEB76D970FB675
:10216000F894DEBF0FBECDBF4091250150912601EE
:102170005695479556954795569547959A01ADECD6
:10218000BCEC0E94C5219695879596958795969566
:1021900087959C01220F331F880F991F880F991F65
:1021A000880F991F280F391FBA01621B730B80E03B
:1021B00090E00E94292020E030E040E251E40E94BB
:1021C000951F6A877B878C879D870E94E50920E0A1
:1021D00030E040E251E4BA85AB85EC851D856B2F7C
:1021E0007A2F8E2F912F0E94DF206A837B838C832E
:1021F0009D8388E090E0998F888F188A198A90E4EF
:102200009A8BE0ECEB8B788969899A898B89272FE7
:10221000362F492F582FDB016B2F7A2F892F952FBF
:102220000E94DF206C8B7D8B8E8B9F8B88E090E0F3
:102230009F878E871E821F8290E49887E0ECE98753
:102240007E816F8198858985272F362F492F582FBA
:10225000DB016B2F7A2F892F952F0E94DF20BC89FD
:10226000AD89EE891F892B2F3A2F4E2F512F0E94B7
:102270002D1F4B018983592EF8E0AF2EB12C00E0C1
:1022800010E0A0E4EA2EB0ECFB2EED8EFC8E14C024
:1022900020E030E040E85FE3FD8DEC8D602F712F92
:1022A0008F2F9E2F0E942D1F8B018D8F9C8FF1E011
:1022B000AF1AB10809F475C09D8D8C8D202F312F78
:1022C000492F582FFC01602F712F8F2F9E2F0E94B6
:1022D000DF20F980282D392D4F2D552D0E942D1FDF
:1022E0006B017C017A816B819C818D81272F362F38
:1022F000492F582F6C2D7D2D8E2D9F2D0E94DB2078
:10230000181634F620E030E040E651E4BA85AB859B
:10231000EC85FD856B2F7A2FCF010E94DF209B017A
:10232000AC016C2D7D2D8E2D9F2D0E94911F87FF5E
:10233000AFCF20E030E040E450E4FD8DEC8D602F25
:10234000712F8F2F9E2F0E942D1F0E94FD1FE62EA2
:1023500020E030E040E450E4BE81AF81F884D984CD
:102360006B2F7A2F8F2D9D2D0E942D1F0E94FD1FF8
:10237000F62E20E030E040E450E4B889A989DA88FC
:10238000CB886B2F7A2F8D2D9C2D0E942D1F0E94A4
:10239000FD1F862F2FEF3FE04E2D6F2D0E94FE0771
:1023A00077CF20E030E040E85FE3BE81AF81E88591
:1023B00019856B2F7A2F8E2F912F0E942D1F6E83E0
:1023C0007F83888799878E859F8501979F878E87D2
:1023D000892B09F035CF20E030E040E85FE3B88991
:1023E000A989EA891B896B2F7A2F8E2F912F0E9442
:1023F0002D1F688B798B8A8B9B8BE88DF98D31979C
:10240000F98FE88FEF2B09F0FECE6D960FB6F8949A
:10241000DEBF0FBECDBFDF91CF911F910F91FF9017
:10242000EF90DF90CF90BF90AF909F908F905F9094
:1024300008955F928F929F92AF92BF92CF92DF9258
:10244000EF92FF920F931F93CF93DF931F92CDB71D
:10245000DEB7182FF62ED42EA22E9E2D322F381B2B
:10246000202F261B8E2D841BE32FFF27E7FDF095E1
:10247000F7FDC4C0CE2ECC0CE22FFF27E7FDF09570
:10248000F7FDB8C09E2E990CE82FFF27E7FDF095C9
:10249000F7FDACC0BE2EBB0C37FDA5C088248394CD
:1024A00013160CF0B9C027FD9BC055245394121687
:1024B0000CF0AEC087FD91C0EE24E39418160CF02A
:1024C000A9C02C2D30E0AB2DB91408F4A92DB0E033
:1024D0002A173B0764F18C2D8695992D981B0B2D9F
:1024E000081B0BC097FD02C0F50C9C1907FD02C02C
:1024F000DE0C0C19180D990D0B0D2FEF3FE04D2D33
:102500006F2D812F99830E94FE079981A112EACF36
:102510000F90DF91CF911F910F91FF90EF90DF907F
:10252000CF90BF90AF909F908F905F900895492D6E
:1025300050E02B2DBC1408F44AC030E0421753077A
:10254000F4F0892D86959C2D981BAB2CA81A0BC0F6
:1025500097FD02C0180D9919A7FC02C0DE0CA9183E
:10256000F50C9C0DAB0C2FEF3FE04D2D6F2D812F07
:1025700099830E94FE0799810F11EACFC9CF4B2D95
:1025800050E0292D9C14F0F130E0421753070CF471
:10259000BFCF8B2D8695AC2CA81A092D081B0BC01C
:1025A000A7FC02C0180DAB1807FD02C0F50C0B19F3
:1025B000DE0CAC0C090D2FEF3FE04D2D6F2D812F60
:1025C00099830E94FE0799819D11EACFA1CF2C2DFE
:1025D00030E0421753079CF2B4CFEE24EA9471CF57
:1025E00055245A9467CF88248A945DCFF195E1955C
:1025F000F10950CFF195E195F10944CFF195E195BD
:10260000F10938CF2C2D30E04217530714F680CF54
:10261000512C50CFE12C55CF812C45CFCF92DF925A
:10262000EF92FF920F931F93CF93DF93C82FC62E85
:10263000D42E122FF02EDE2D062F282F0E941912D5
:10264000ED2C212F4D2D6C2D8C2F0E9419120F2D4A
:102650002C2F4D2D6C2D8C2F0E941912212F4D2FB8
:102660006F2D812F0E941912ED2E0C2D212F4D2F31
:102670006F2D812F0E9419120F2D2C2F4D2F6F2D92
:10268000812F0E941912ED2C212F4D2D6F2D8C2F93
:102690000E941912ED2E2C2F4D2D6F2D8C2F0E9484
:1026A00019120C2D212F4D2D6C2D812F0E941912E6
:1026B000ED2C0F2D212F4D2D6C2D812F0E941912E5
:1026C000ED2E2C2F4D2F6C2D8C2F0E9419120C2FBC
:1026D000212F4D2F6C2D8C2F0E941912DF91CF913D
:1026E0001F910F91FF90EF90DF90CF900895CF92C0
:1026F000DF92EF920F93CF93DF931F92CDB7DEB7A8
:102700002091250130912601369527953295229505
:102710002F7023273F702327F7E0CF2ED12CC22222
:10272000D3222095277029830E94E5092981E22E72
:10273000022F4C2D6C2D8C2D0E940E130F90DF91CB
:10274000CF910F91EF90DF90CF900895EF920F937C
:102750000E94E509A7E0EA2E07E027E040E060E0FC
:1027600080E00E940E130F91EF900895EF920F9367
:102770000E94E509B6E0EB2E07E024E040E062E0CD
:1027800081E00E9419120F91EF9008950F931F930B
:102790000FEF1FE025E042E062E081E00E94950932
:1027A0002FEF3FE041E061E082E00E94FE0725E07C
:1027B00043E061E082E00E94950926E041E062E0AA
:1027C00082E00E94950924E043E063E082E00E94F9
:1027D00095092FEF3FE043E061E082E00E94FE07B1
:1027E00025E042E062E083E00E9495091F910F918D
:1027F0000895883008F087E008958F929F92AF92F5
:10280000BF92CF92DF92EF92FF920F931F93CF93DD
:10281000DF93E0912501F09126019F01ADECBCEC26
:102820000E94C5219695879596958795969587954B
:10283000AC01440F551F880F991F880F991F880FEF
:10284000991F480F591FE417F507A1F50E94872229
:102850007C010E9487228C010E9487225C010E94D9
:1028600087226C010E948722EC010E9487224C0182
:10287000E7E0F0E0C701BF010E94F521E82EC801A2
:10288000BF010E94F521082FC501BF010E94F5215B
:10289000282FC601BF010E94F521482FCE01BF019C
:1028A0000E94F521382FC401BF010E94F521632F3A
:1028B0000E941912DF91CF911F910F91FF90EF901D
:1028C000DF90CF90BF90AF909F908F900895DF9250
:1028D000EF92FF920F931F93CF93DF9340912501C7
:1028E000509126019A0136952795ABE7B4E10E94F5
:1028F000C5219695879562E3689F9001699F300D89
:1029000011244217530741F0DF91CF911F910F918E
:10291000FF90EF90DF9008950E94E50900E010E03D
:10292000E801CC0FDD1FC00FD11FC25DDB4FD88087
:10293000E980FA802FEF3FE04F2D6E2D8D2D0E9404
:10294000FE070E9487228D2D81500E94F913D82EF8
:102950000E9487228E2D81500E94F913E82E0E943A
:1029600087228F2D81500E94F913D882E9828A83B1
:102970000F5F1F4F0530110599F6DF91CF911F9121
:102980000F91FF90EF90DF9008955F928F929F924A
:10299000AF92BF92CF92DF92EF92FF920F931F936D
:1029A000CF93DF93A82E862EE42EC0910801D091FC
:1029B0000901682F61501FEFF12C942E9A94582C26
:1029C0005A94552D4FEF38EFB32EB60E062F085FF1
:1029D000992D8FEF78EFD72ED50EE8E0CE2EC50ECD
:1029E00067FD84C068300CF47CC07B2D57FD7CC033
:1029F00058300CF470C02D2DE92F97FD70C0983021
:102A00000CF0E85030E4E39FF001112430E0220F95
:102A1000331F220F331F220F331F272BE22BF32BE1
:102A20009F01220F331F2E0F3F1F220F331F220F34
:102A3000331FF901F695E795F695E795F695E79535
:102A4000EC0FFD1F3181B081A0E0FD01E32B22FDE1
:102A50003FC09F01329522952F7023273F70232777
:102A600071E0232B09F470E0F70E8F5F9F5F8230D7
:102A700009F0B6CF4F5F5F5F423009F0A9CF1F5F0B
:102A80006F5F123009F09DCF8F2D86508A3040F055
:102A90000E9487226AE070E00E94F521893040F1AF
:102AA0002FEF3FE04E2D682D8A2D0E94FE0781E01A
:102AB00080932E04DF91CF911F910F91FF90EF90A3
:102AC000DF90CF90BF90AF909F908F905F900895D0
:102AD0009F013F70C5CF252FE92F97FF90CFE85F6B
:102AE00091CF762F57FF84CF2C2D86CF702F7ECF9E
:102AF00020E030E04E2D682D8A2DDF91CF911F917F
:102B00000F91FF90EF90DF90CF90BF90AF909F908C
:102B10008F905F900C94FE071F93CF93DF932FEF5E
:102B20003FE04091300460912F0480912E040E9478
:102B3000FE07C0912E040E948722C25081709078B7
:102B400097FD27C08C0F0E94F913D82FC0912F0436
:102B50000E948722C2508170907897FD24C08C0F0C
:102B60000E94F913C82F109130040E94872212503E
:102B70008170907897FD12C0810F0E94F913D09355
:102B80002E04C0932F0480933004DF91CF911F91C6
:102B9000089501978E6F9F6F0196D4CF01978E6F26
:102BA0009F6F0196E9CF01978E6F9F6F0196D7CFE8
:102BB000EF92FF920F931F93CF93DF93C0E3D4E084
:102BC00013C04083FE01319798012770307837FD9C
:102BD00028C020838770907897FD2EC08883239625
:102BE00084E0CE34D80791F10E9487227C010E94B4
:102BF00087228C010E948722FE013297A70147702D
:102C0000507857FFDECF41505109486F5F6F4F5FDB
:102C10005F4F4083FE01319798012770307837FF6E
:102C2000D8CF21503109286F3F6F2F5F3F4F20834E
:102C30008770907897FFD2CF0197886F9F6F01962A
:102C40008883239684E0CE34D80771F6DF91CF9144
:102C50001F910F91FF90EF900C94E5090F931F9334
:102C6000CF93DF9300D000D000D0CDB7DEB70E9465
:102C7000E5092FEF3FE040913204609130048091EC
:102C80002E040E94FE0780913704909138040A9721
:102C900009F448C080912E0490912F049A8389836F
:102CA00080913004909131049C838B838091320415
:102CB000909133049E838D831091550411500AE046
:102CC0002BC0812F992787FD90951150FC01EE0FA5
:102CD000FF1FE25DFB4F0184F285E02DEE0FFF1F29
:102CE00021E030E02C0F3D1FE20FF31FDC01A25D5D
:102CF000BB4F5D962C9180819181821B910927FDAC
:102D00009395918380832FEF3FE04D816B81898183
:102D10000E94FE07015031F01F3F99F618E089E04C
:102D200090E0D4CF809134049091350440913604E2
:102D3000FC01EE0FFF1FE25DFB4F20813181240F6C
:102D4000311D47FD3A9528303105E8F10196833071
:102D5000910590F590933504809334044195409308
:102D6000360450915504252F30E0F901EE0FFF1F76
:102D7000E25DFB4F92878187F901E25DFB4F458F52
:102D80005930E8F010925504FC01EE0FFF1FE25D90
:102D9000FB4F80819181840F911D47FD9A9591830E
:102DA000808326960FB6F894DEBF0FBECDBFDF91AD
:102DB000CF911F910F91089580E090E0CBCF5F5F9E
:102DC00050935504E1CF0E9487226AE070E00E9490
:102DD000F521883038F08091340490913504409189
:102DE0003604B4CF80913404909135044091360478
:102DF000B8CF2FEF3FE040913204609130048091D2
:102E00002E040E94FE07E0913404F0913504DF01A6
:102E1000AA0FBB1FA25DBB4F20913604309137042F
:102E20008D919C91820F931F0897E8F03196E330C3
:102E3000F105B0F4F0933504E09334043195219515
:102E400031093093370420933604EE0FFF1FE25D03
:102E5000FB4F80819181820F931F9183808308951E
:102E6000E0E0F0E0E7CF0E9487226AE070E00E9495
:102E7000F521E0913404F09135042091360430912D
:102E80003704883098F6E1CFEF92FF920F931F93AB
:102E9000CF93DF93C0E3D4E013C04083FE013197AA
:102EA00098012770307837FD28C02083877090788C
:102EB00097FD2EC08883239684E0CE34D80791F105
:102EC0000E9487227C010E9487228C010E94872217
:102ED000FE013297A7014770507857FFDECF41506F
:102EE0005109486F5F6F4F5F5F4F4083FE0131971D
:102EF00098012770307837FFD8CF21503109286FDB
:102F00003F6F2F5F3F4F20838770907897FFD2CF1E
:102F10000197886F9F6F01968883239684E0CE3453
:102F2000D80771F6DF91CF911F910F91FF90EF902D
:102F30000C94E509EF92FF920F931F93CF93DF93C9
:102F4000C0E0D0E00E9487227C010E9487228C0191
:102F50000E948722FE01EE0FFF1FEC0FFD1FE25DB6
:102F6000FB4FA7014770507857FD24C0408398015C
:102F70002770307837FD17C021838770907897FDD0
:102F80000DC082832196C530D105E1F6DF91CF9146
:102F90001F910F91FF90EF900C94E5090197886FB6
:102FA0009F6F0196EECF21503109286F3F6F2F5F41
:102FB0003F4FE2CF41505109486F5F6F4F5F5F4F06
:102FC000D5CF1F93CF93DF93FC0185919491C82FA8
:102FD000D92F209761F0FE0121961491812F0E9434
:102FE000200E1111F8CFDF91CF911F91089580E04D
:102FF000DF91CF911F910C94C30DCF92DF92EF928E
:10300000FF920F931F93CF93DF930E94E509C12C8A
:10301000D12CE12CE60110E0CE010E948C224091DF
:1030200025015091260156954795569547955695F9
:103030004795042F0E948722402F480F47702FEF9B
:1030400031E0612F8E2D0E94FE071F5F23961830FE
:1030500019F7E39488E1C80ED11C88E0E812DACFB2
:10306000C0912501D0912601FE01EE0FEF2FEE1F3A
:10307000FF0BF1959F01A3E9B4E20E94C521AF01C6
:10308000481B590B56954795480F591F569547951C
:1030900056954795CA01880F991F880F991F880F69
:1030A000991F841B950BDE2ED81AED2CE394CC2EA1
:1030B0008FE7C822F12CC7E00C2F0F1910E0D0E0E9
:1030C0002FEF3FE0402F6D2F812F0E94FE07DF5F23
:1030D000D830B1F71F5F183091F7F394FE1460F306
:1030E00077E0F72EFD182C2D220F30E000E0220FA4
:1030F000331F2457394FF901C591D49110E09E0137
:103100004F2D612F802F0E94FE071F5F1830B9F7E7
:103110000F5F083099F7DF91CF911F910F91FF90CA
:10312000EF90DF90CF900895F89480910E018E7FFC
:1031300080930E0178948091080190910901865541
:10314000944009F44FC086E594E090930701809382
:1031500006018091A8079091A907A091AA07B091B4
:10316000AB078091A8079091A907A091AA07B091F9
:10317000AB072091170130911801822793270E94F5
:103180008C228091290190912A01FC01329625918F
:103190003491F901309729F0099580912901909196
:1031A0002A014091080150910901209106013091B6
:1031B00007013093090120930801FC0136968491A0
:1031C00081110BC03093070120930601F8941092EF
:1031D00018011092170178940895509307014093B5
:1031E0000601F4CF8EE291E09093070180930601EF
:1031F000B0CF1F920F920FB60F9211242F933F93CF
:103200004F938F939F93EF93FF93209119013091E8
:10321000780040917900E22FF0E0EE0FFF1FE65EAC
:10322000FE4F942F80E0832B918380832F5F223089
:10323000D0F01092190120E080917C00807E822BDA
:1032400080937C0080917A00806480937A00FF9163
:10325000EF919F918F914F913F912F910F900FBEC2
:103260000F901F90189520931901E6CF1F920F928F
:103270000FB60F9211248F929F92AF92BF92CF926E
:10328000DF92EF92FF920F931F932F933F934F93F1
:103290005F936F937F938F939F93AF93BF93EF93BE
:1032A000FF93CF93DF93CDB7DEB76097DEBFCDBF7F
:1032B0008091170190911801019649F080911701B2
:1032C00090911801019690931801809317018091B5
:1032D000AC0781508093AC07811111C09091AD076C
:1032E0008091A8072091A907822725E582273091A0
:1032F000AA0783273091AB078327891719F16096B6
:103300000FB6F894DEBF0FBECDBFDF91CF91FF9116
:10331000EF91BF91AF919F918F917F916F915F914D
:103320004F913F912F911F910F91FF90EF90DF9060
:10333000CF90BF90AF909F908F900F900FBE0F9047
:103340001F9018958DE78093AC078091A807909106
:10335000A907A091AA07B091AB070196A11DB11DC5
:103360008093A8079093A907A093AA07B093AB07EF
:103370008091A8079091A907892782279091AA0791
:1033800089279091AB0789278093AD0780911E0113
:103390008111B5CF81E080931E018090A8079090A5
:1033A000A907A090AA07B090AB077894C0901F011E
:1033B000D0902001E0902101F09022018C149D0416
:1033C000AE04BF0450F480921F0190922001A0929D
:1033D0002101B092220175016401C501B40120E808
:1033E00031E541E050E00E9409222D873E874F875A
:1033F000588B60E871E581E090E00E94D1216987F7
:103400007A878B879C87C616D706E806F90608F4E4
:1034100084C0C701B60129853A854B855C85621B4E
:10342000730B840B950B2CE330E040E050E00E94DE
:1034300009226901C501B40129853A854B855C855E
:10344000621B730B840B950B2CE330E040E050E0E3
:103450000E9409223A8729876D857E858F85988904
:1034600027E030E040E050E00E940922EE24E3949F
:10347000F12C02C0EE0CFF1C6A95E2F700E010E0B0
:103480001AC08D8190E08E219F21892B71F08E8151
:103490009F81C816D9064CF449855A8548175907A3
:1034A00024F0EA81FB818C810995085F1F4F50E071
:1034B0000035150739F148E050E0B801CE0101961A
:1034C0000E949E2289818F3FE9F08E3F71F388230D
:1034D000C1F28130B9F48D819E81AF81B885409170
:1034E0001F01509120016091210170912201481724
:1034F00059076A077B07C8F688169906AA06BB060D
:10350000A0F2CFCF80921F0190922001A0922101C2
:10351000B092220110921E01F2CECC24CA94DC2C6F
:1035200089CF1F920F920FB60F9211248F939F9302
:1035300086B1807190911601923021F1909116011F
:10354000933039F09F918F910F900FBE0F901F9085
:1035500018958111F7CF8091840090918500909308
:10356000150180931401809168008D7F809368001D
:1035700084E0809316019F918F910F900FBE0F9062
:103580001F9018958823F1F2109285001092840004
:1035900083E0809316019F918F910F900FBE0F9043
:1035A0001F9018951F920F920FB60F9211242F9310
:1035B0003F934F935F936F937F938F939F93AF93BB
:1035C000BF93EF93FF9380911601813061F1809159
:1035D0001601833009F180916F008D7F80936F0019
:1035E000809168008D7F8093680010921601809111
:1035F0001301813089F1FF91EF91BF91AF919F91BC
:103600008F917F916F915F914F913F912F910F908B
:103610000FBE0F901F9018958FEF9FEF909315019D
:1036200080931401D8CF459880918100887F809342
:10363000810080E797E19093890080938800109241
:1036400085001092840080918100846080938100C5
:1036500082E080931601CFCF809116018111CBCFEC
:103660000E94D50CC8CF1F920F920FB60F92112453
:103670005C9AFFCF1F920F920FB60F9211248F9377
:103680009F93EF93FF93809112019091C600E82FD2
:10369000F0E0E95AF84F90838F5F80931201809198
:1036A0001201803491F09091120180915607981385
:1036B00003C081E080931101FF91EF919F918F9161
:1036C0000F900FBE0F901F90189510921201EBCF24
:1036D0001F920F920FB60F9211248F939F93EF9327
:1036E000FF9380911001909197079817A1F0809116
:1036F0000F01813081F080911001E82FF0E0E85651
:10370000F84F90819093C6008F5F80931001809155
:103710001001803149F0FF91EF919F918F910F90AF
:103720000FBE0F901F90189510921001F4CF6FB636
:103730004A9441F06FBE3F01F10121902EBC1F0160
:10374000F30118956FBE18951F920F920FB60F9246
:1037500011242F933F938F939F932A9A299A299804
:103760002A9880910E018C718C3131F180910E017B
:10377000869586958F5F8770880F880F90910E01D0
:10378000937E982B90930E0120910E0126952695FD
:10379000277081E090E001C0880F2A95EAF78095B4
:1037A0008EBD21E6422E9F918F913F912F910F90D8
:1037B0000FBE0F901F90189580910E01837E80930D
:1037C0000E0180910E0180FD06C08091080190914C
:1037D00009011C01D9CF2091080130910901809184
:1037E000060190910701909309018093080130939D
:1037F00007012093060120910E012E7F20930E01D8
:103800001C01C2CFCF93DF93CDB7DEB769970FB658
:10381000F894DEBF0FBECDBFF89488E10FB6F894E0
:1038200080936000109260000FBE84B1866084B9FE
:10383000549A2A9A84B18C6284B98CB5806D8CBDFF
:10384000539A82E084BD8FE087BD85B5856085BDD4
:103850008091B00082608093B0008CE78093B300C9
:10386000809170008260809370008091B1008760C9
:103870008093B10080E00E94250D519A1092C500FE
:1038800087E68093C4008091C0008D7F8093C00044
:103890008091C20086608093C2008091C1008860E0
:1038A0008093C1008091C10080618093C1008091AC
:1038B000C10080688093C1008091C10080648093C2
:1038C000C100789480911601882309F4B6C283E080
:1038D00080937E0080E480937C0087E880937A0068
:1038E0001092190180917A00886480937A0082E4B2
:1038F0000E94010E82E08093240180E00E94250D49
:103900000E94941880E00E94640D05E1802E912CA5
:103910008C0E9D1E89E0E82EF12CEC0EFD1E95E527
:10392000592E80911101813061F0809112019091A6
:103930005607891B20911201291708F4805C811118
:1039400088C010912401113029F108F07BC083B7A1
:10395000816083BF889583B78E7F83BF809111017B
:10396000813019F7EECF0E94CD0C90932601809301
:10397000250120912701309128012817390750F49B
:1039800080912B01823309F4A4C08F5F0E94250D22
:103990000E94941880910E0180FDC3CF0E94CD0C2F
:1039A00090932601809325010E94000D80930201CF
:1039B0000E94000D80930301F89420911A01309128
:1039C0001B01789436952795369527952093040109
:1039D000F89420911C0130911D017894369527951B
:1039E00036952795209305012091290130912A01D0
:1039F000F901349645915491FA01309761F0099597
:103A0000F89480910E01816080930E01789420914A
:103A1000290130912A01F90137962491009125015D
:103A200010912601020F111D07C083B7816083BF6B
:103A3000889583B78E7F83BF0E94CD0C8017910736
:103A4000A0F36FCF123009F48ECF133009F069CF95
:103A50007ECFE92FF0E0E95AF84F80819F5F9034E4
:103A600041F0909356078E3741F080E40E94010E9A
:103A700068CF109256078E37C1F70E949D0D8E3782
:103A8000B1F18A3209F45DCF8E3239F18534A1F17A
:103A9000803509F458C0843509F443C0843709F4EB
:103AA000D7C0833509F4E9C0853609F40BC18136E6
:103AB00009F41EC1813409F449C1833609F46AC18D
:103AC000833409F45CC08FE30E94010E109124013D
:103AD0003ACF80E00E94250D5BCF88E20E94010E64
:103AE0001092240110E089E20E94010E2CCF0E9466
:103AF0007C0D1091240127CF88E20E94010E61E025
:103B000070E0CE0141960E942C0E892BB1F089897C
:103B1000803208F473C181E00E94C30D109124012A
:103B2000E2CF88E20E94010E64E070E0CE0141968F
:103B30000E942C0E049708F069C080E00E94C30D1B
:103B400010912401D0CF88E20E94010E61E070E064
:103B5000CE0141960E942C0E892B79F3E989E6303B
:103B6000D0F682E080932401F0E0E457F74F8081A3
:103B70000E94250D0E94941810912401B4CF88E270
:103B80000E94010E00E010E0D12C68E070E0C70157
:103B90000E942C0E882389F0883008F44AC1898558
:103BA0008230D8F08E3FC9F081E00E94C30D8D2D88
:103BB0000E94200EE9E0ED1518F28D2D90E0880F9F
:103BC000991F880F991F880F991F6FEF80509040A1
:103BD0000E94BE221091240186CFAA85BB8520E0D9
:103BE00030E0F901EE0FFF1FEE0FFF1FEE0FFF1F7A
:103BF000EE56F74F45915491A417B50709F4F1C05B
:103C00002F5F3F4F2430310561F7CECFF8944989BB
:103C10005A896B897C894093A8075093A9076093C0
:103C2000AA077093AB078DE78093AC078091A80734
:103C30009091A907892785259091AA0789279091B6
:103C4000AB0789278093AD077894109124014BCF5F
:103C500088E20E94010E0E94660E698B7A8B8B8B24
:103C60009C8B8E010F5E1F4FF80181918F010E9486
:103C7000200E08151905C1F763CF88E20E94010ED6
:103C800062E070E0CE0148960E942C0E029708F484
:103C900054CF888D863008F03ECF698D90E09C012E
:103CA000260F311D2730310508F0BDC070E080506F
:103CB0009F4F0E942C0E298D30E08217930708F445
:103CC0003CCF3ECF88E20E94010E00E010E0C80128
:103CD000880F991F880F991F880F991F8B579E4F28
:103CE0000E94E1170F5F1F4F0032110581F728CFA7
:103CF00088E20E94010EC12CD12C8601000F111FF9
:103D0000000F111F000F111FF801EE56F74FA5907D
:103D1000B4908A2D0E94200E8B2D0E94200EC80187
:103D20008C56974F0E94E117C8018A56974F0E9400
:103D3000E117C8018856974F0E94E117FFEFCF1A8D
:103D4000DF0A84E0C816D104C1F6FACE88E20E94E8
:103D5000010E63E070E0C4010E942C0E039708F48A
:103D6000ECCE4D895E8980E090E09C01220F331FEC
:103D7000220F331F220F331F2E56374FF901259183
:103D800034914217530709F461C0019684309105BC
:103D900061F7C1CE88E20E94010EE0E0CE2EE0E0A5
:103DA000DE2E48E050E0B601CE0101960E949E2230
:103DB00089818F3F09F4C4CE8E010E5F1F4F03C06F
:103DC000F80181918F010E94200E0E151F05C1F789
:103DD000F8E0CF0ED11C80E5C81680E0D80609F7C0
:103DE000AFCE48E050E0B801C7010E94AE22D394A4
:103DF000085F1F4FFAE0DF12C8CEA2CE91E0909389
:103E0000240190E0880F991F880F991F880F991F30
:103E10008B579E4F90932A01809329010E949418FA
:103E20001091240160CE82E00E94C30D1091240104
:103E30005ACE80E00E94C30DC0CE0E94D50C892BC3
:103E400009F445CD81E08093130141CD8F89FA01BA
:103E500009951091240147CE5058BB27AA270ED0B0
:103E600070C161D130F066D120F031F49F3F11F480
:103E70001EF456C10EF4E095E7FB4CC1E92F72D158
:103E800080F3BA17620773078407950718F071F477
:103E90009EF58AC10EF4E0950B2EBA2FA02D0B01D2
:103EA000B90190010C01CA01A0011124FF27591B7F
:103EB00099F0593F50F4503E68F11A16F040A22F85
:103EC000232F342F4427585FF3CF469537952795F6
:103ED000A795F0405395C9F77EF41F16BA0B620BF5
:103EE000730B840BBAF09150A1F0FF0FBB1F661F3C
:103EF000771F881FC2F70EC0BA0F621F731F841F7F
:103F000048F4879577956795B795F7959E3F08F0A4
:103F1000B3CF9395880F08F09927EE0F9795879563
:103F20000895D4D008F481E008950CD00AC102D1DC
:103F300040F0F9D030F021F45F3F19F0EBC051119F
:103F400034C1EEC00FD198F39923C9F35523B1F3CF
:103F5000951B550BBB27AA2762177307840738F0F8
:103F60009F5F5F4F220F331F441FAA1FA9F333D057
:103F70000E2E3AF0E0E830D091505040E695001C0B
:103F8000CAF729D0FE2F27D0660F771F881FBB1FC7
:103F9000261737074807AB07B0E809F0BB0B802DA1
:103FA000BF01FF2793585F4F2AF09E3F510568F0ED
:103FB000B1C0FBC05F3FECF3983EDCF3869577958C
:103FC0006795B795F7959F5FC9F7880F911D9695EF
:103FD000879597F90895E1E0660F771F881FBB1F4B
:103FE000621773078407BA0720F0621B730B840BF8
:103FF000BA0BEE1F88F7E0950895BCD088F09F5764
:1040000090F0B92F9927B751A0F0D1F0660F771F24
:10401000881F991F1AF0BA95C9F712C0B13081F004
:10402000C3D0B1E00895C0C0672F782F8827B85F4C
:1040300039F0B93FCCF3869577956795B395D9F765
:104040003EF490958095709561957F4F8F4F9F4F6F
:104050000895E89409C097FB3EF49095809570957B
:1040600061957F4F8F4F9F4F9923A9F0F92F96E9C4
:10407000BB279395F695879577956795B795F11139
:10408000F8CFFAF4BB0F11F460FF1BC06F5F7F4FD6
:104090008F4F9F4F16C0882311F096E911C07723E8
:1040A00021F09EE8872F762F05C0662371F096E8F1
:1040B000862F70E060E02AF09A95660F771F881FC0
:1040C000DAF7880F9695879597F90895990F000864
:1040D000550FAA0BE0E8FEEF16161706E807F907DA
:1040E000C0F012161306E407F50798F0621B730B75
:1040F000840B950B39F40A2661F0232B242B252BF6
:1041000021F408950A2609F4A140A6958FEF811D98
:10411000811D089597F99F6780E870E060E0089539
:104120009FEF80EC089500240A94161617061806CF
:104130000906089500240A941216130614060506AB
:104140000895092E0394000C11F4882352F0BB0F3C
:1041500040F4BF2B11F460FF04C06F5F7F4F8F4F9F
:104160009F4F089557FD9058440F551F59F05F3FDA
:1041700071F04795880F97FB991F61F09F3F79F089
:1041800087950895121613061406551FF2CF46950B
:10419000F1DF08C0161617061806991FF1CF86958D
:1041A0007105610508940895E894BB276627772771
:1041B000CB0197F908958ADF08F48FEF08950BD0AB
:1041C000C0CFB1DF28F0B6DF18F0952309F0A2CFF9
:1041D000A7CF1124EACFC6DFA0F3959FD1F3950FA7
:1041E00050E0551F629FF001729FBB27F00DB11D7B
:1041F000639FAA27F00DB11DAA1F649F6627B00D0B
:10420000A11D661F829F2227B00DA11D621F739FF3
:10421000B00DA11D621F839FA00D611D221F749F01
:104220003327A00D611D231F849F600D211D822F48
:10423000762F6A2F11249F5750408AF0E1F088238F
:104240004AF0EE0FFF1FBB1F661F771F881F91509C
:104250005040A9F79E3F510570F05CCFA6CF5F3F5D
:10426000ECF3983EDCF3869577956795B795F795CF
:10427000E7959F5FC1F7FE2B880F911D9695879557
:1042800097F908959F9305D00F9007FCEE5F28C023
:1042900047CF70DFE8F3E894E0E0BB279F57F0F0EA
:1042A0002AED3FE049EC06C0EE0FBB0F661F771FFB
:1042B000881F28F0B23A62077307840728F0B25AC1
:1042C000620B730B840BE3959A9572F7803830F488
:1042D0009A95BB0F661F771F881FD2F7904813C0AF
:1042E000EF93E0FF06C0A2EA2AED3FE049EC5FEB66
:1042F000C5DD27DF0F90039401FC9058E8E6F0E05D
:104300000EC09F3F31F0915020F4879577956795C7
:10431000B795880F911D9695879597F908959F9366
:104320008F937F936F93FF93EF939B01AC0147DFD4
:10433000EF91FF9105D02F913F914F915F913FCF2A
:10434000DF93CF931F930F93FF92EF92DF927B0146
:104350008C01689405C0DA2EEF013DDFFE01E89480
:10436000A5912591359145915591AEF3EF0186DDEB
:10437000FE019701A801DA9479F7DF90EF90FF90A2
:104380000F911F91CF91DF910895A29FB001B39F2C
:10439000C001A39F01D0B29F700D811D1124911DFA
:1043A0000895DB018F939F930E942B22BF91AF91C1
:1043B000A29F800D911DA39F900DB29F900D11247F
:1043C0000895AA1BBB1B51E107C0AA1FBB1FA6175C
:1043D000B70710F0A61BB70B881F991F5A95A9F7AE
:1043E00080959095BC01CD01089597FB072E16F49A
:1043F000009407D077FD09D00E94E12107FC05D089
:104400003EF4909581959F4F0895709561957F4FEB
:104410000895A1E21A2EAA1BBB1BFD010DC0AA1F05
:10442000BB1FEE1FFF1FA217B307E407F50720F01D
:10443000A21BB30BE40BF50B661F771F881F991F98
:104440001A9469F760957095809590959B01AC01E1
:10445000BD01CF0108950E94C521A59F900DB49F75
:10446000900DA49F800D911D112408958F929F920D
:10447000AF92BF92CF92DF92EF92FF92CF93DF93F2
:10448000EC01688179818A819B81611571058105C3
:10449000910521F464E279ED8BE597E02DE133EFAE
:1044A00041E050E00E94D82249015A019B01AC0131
:1044B000A7EAB1E40E942B226B017C01ACEEB4EFC1
:1044C000A50194010E94D322C60ED71EE81EF91E34
:1044D000F7FE06C081E0C81AD108E10880E8F80AB2
:1044E000C882D982EA82FB82E894D7F8EE24FF24BE
:1044F000C601DF91CF91FF90EF90DF90CF90BF90FA
:10450000AF909F908F9008950E94362208958AE080
:1045100091E00E9436220895A0E0B0E080930A0165
:1045200090930B01A0930C01B0930D010895DC0151
:1045300001C06D9341505040E0F70895DC01CB017C
:10454000FC01F999FECF06C0F2BDE1BDF89A3196A3
:1045500000B40D9241505040B8F70895DC01A40F0B
:10456000B51F4150504048F0CB01840F951F2E914C
:104570000E94BF2241505040D0F70895262FF9994C
:10458000FECF92BD81BDF89A019700B4021639F0B2
:104590001FBA20BD0FB6F894FA9AF99A0FBE089583
:1045A000B7FF0C942B220E942B22821B930B0895A1
:1045B000052E97FB16F4009407D057FD0DD00E94EE
:1045C000092207FC09D07EF490958095709561953D
:1045D0007F4F8F4F9F4F089550954095309521956F
:0C45E0003F4F4F4F5F4F0895F894FFCFFE
:0E45EC00FF0F000000002E0156040100000029
:00000001FF
